:100000000C942A000C9447000C947E070C94470033
:100010000C9447000C9447000C9447000C94470044
:100020000C9447000C9447000C9447000C94F10783
:100030000C9447000C9447000C9447000C94470024
:100040000C9447000C9447000C9447000C94470014
:100050000C94470011241FBECFE5D8E0DEBFCDBF12
:1000600011E0A0E6B0E0E4EEF0E102C005900D92F0
:10007000AA3AB107D9F721E0AAEAB1E001C01D927E
:10008000AE3BB207E1F70E9471050C9470080C9426
:100090000000411138C0813091F028F08230D9F051
:1000A000833029F108952AB381E090E002C0880FDF
:1000B000991F6A95E2F7809582238ABB089527B33A
:1000C00081E090E002C0880F991F6A95E2F7809561
:1000D000822387BB089524B381E090E002C0880F9B
:1000E000991F6A95E2F78095822384BB089521B316
:1000F00081E090E002C0880F991F6A95E2F7809531
:10010000822381BB0895413099F5813089F028F030
:100110008230C9F0833011F108952AB381E090E074
:1001200002C0880F991F6A95E2F7822B8ABB089557
:1001300027B381E090E002C0880F991F6A95E2F72B
:10014000822B87BB089524B381E090E002C0880F22
:10015000991F6A95E2F7822B84BB089521B381E051
:1001600090E002C0880F991F6A95E2F7822B81BB4D
:100170000895813041F028F0823039F0833039F031
:1001800008956ABB089567BB089564BB089561BB79
:100190000895411138C0813091F028F08230D9F0B3
:1001A000833029F108952BB381E090E002C0880FDD
:1001B000991F6A95E2F7809582238BBB089528B337
:1001C00081E090E002C0880F991F6A95E2F7809560
:1001D000822388BB089525B381E090E002C0880F98
:1001E000991F6A95E2F78095822385BB089522B313
:1001F00081E090E002C0880F991F6A95E2F7809530
:10020000822382BB0895413099F5813089F028F02E
:100210008230C9F0833011F108952BB381E090E072
:1002200002C0880F991F6A95E2F7822B8BBB089555
:1002300028B381E090E002C0880F991F6A95E2F729
:10024000822B88BB089525B381E090E002C0880F1F
:10025000991F6A95E2F7822B85BB089522B381E04E
:1002600090E002C0880F991F6A95E2F7822B82BB4B
:100270000895813041F028F0823039F0833039F030
:1002800008956BBB089568BB089565BB089562BB74
:100290000895DF92EF92FF920F931F93CF93DF9316
:1002A00000E110E0C0E0D0E0DC2E78010C2E02C0AE
:1002B000EE0CFF1C0A94E2F76E2D80E00E94B9005C
:1002C0006E2D609580E00E943901C89B0EC041E010
:1002D00050E0942F29B330E0042E02C035952795C5
:1002E0000A94E2F720FD15C001C090E0D394892F55
:1002F000880F980F8D2D890F8B3029F08C3029F0C5
:100300008A3089F404C080E00EC083E20CC08AE227
:100310000AC04F5F5F4F44305105D9F62196C33074
:10032000D10511F6BFCFDF91CF911F910F91FF90B3
:10033000EF90DF900895CF93C82F40E062E081E016
:100340000E94C90040E061E081E00E94C90041E0F4
:1003500063E081E00E94C9006C2F607F82E00E9410
:10036000390140E063E081E00E94C9008FEC97E032
:100370000197F1F700C0000041E063E081E00E94D6
:10038000C9008FEC97E00197F1F700C000006C2FD7
:100390006295607F82E00E94390140E063E081E085
:1003A0000E94C9008FEC97E00197F1F700C00000B0
:1003B00041E063E081E00E94C9008FEC97E0019783
:1003C000F1F700C00000CF91089541E062E081E0C4
:1003D0000E94490041E063E081E00E94490041E061
:1003E00061E081E00E94490060EF82E00E94B90074
:1003F0002FE788E391E0215080409040E1F700C072
:10040000000082E00E949B018FEC97E00197F1F7DA
:1004100000C0000088E20E949B018FEC97E00197EA
:10042000F1F700C000008CE00E949B018FEC97E088
:100430000197F1F700C0000081E00E949B018FE36B
:100440009CE90197F1F700C0000086E00E949B0143
:1004500080E80E949B018FE99FE00197F1F700C0BF
:1004600000000895CF93C82F41E062E081E00E9430
:10047000C90040E061E081E00E94C90041E063E022
:1004800081E00E94C9006C2F607F82E00E943901E8
:1004900040E063E081E00E94C9008FE99FE001979E
:1004A000F1F700C0000041E063E081E00E94C90074
:1004B0008FE99FE00197F1F700C000006C2F629573
:1004C000607F82E00E94390140E063E081E00E94A9
:1004D000C9008FE99FE00197F1F700C0000041E0FB
:1004E00063E081E00E94C9008FE99FE00197F1F786
:1004F00000C00000CF9108950F931F93CF93FC018C
:100500008081882389F08F01C0E00E9432028FE948
:100510009FE00197F1F700C00000CF5FF801EC0FFA
:10052000F11D80818111F1CFCF911F910F9108951D
:10053000813031F060F0823029F0833029F006C03C
:10054000605C05C06C5E03C06C5A01C060E0862F21
:1005500080680E949B0108951F93CF93DF93CDB7CE
:10056000DEB72A970FB6F894DEBF0FBECDBFAC0141
:10057000892B21F480E30E9432023BC010E0E1E0CD
:10058000F0E0EC0FFD1FE10FF11D9A01ADECBCECAA
:100590000E944C0896958795969587959695879590
:1005A0009C01220F331F880F991F880F991F880FF6
:1005B000991F820F931F9A01281B390BC901805D77
:1005C00080839A010E944C08AC0156954795569538
:1005D0004795569547951F5F4115510581F61123A3
:1005E00041F0FE01E10FF11D80810E9432021150A5
:1005F000C1F72A960FB6F894DEBF0FBECDBFDF91CC
:10060000CF911F91089581E00E949B0182E00E949A
:100610009B010895CF93DF930E94030380E690E04F
:100620000E947C0260E081E00E9498028BE690E0EC
:100630000E947C020E944901813069F58BE00E9492
:1006400035070E94030389E790E00E947C0262E084
:1006500081E00E94980287E890E00E947C022FEFE0
:1006600080E792E0215080409040E1F700C0000018
:100670000E94030381E990E00E947C02C0EDD7E074
:100680000E9469078FEC97E00197F1F700C0000026
:100690002197B1F714C00E944901823081F00E9475
:1006A00003038CE990E00E947C029FEF20E782E048
:1006B000915020408040E1F700C00000ADCFDF91B5
:1006C000CF910895CF93DF930E94030385EA90E0D2
:1006D0000E947C0260E081E00E9498028BE690E03C
:1006E0000E947C020E944901813009F059C00E9499
:1006F000030383EB90E00E947C020E944901C82F13
:100700008332D9F38A32C9F360E081E00E94980213
:100710008C2F90E00E94AC022FEF80E792E02150F6
:1007200080409040E1F700C000000E944901D82FAE
:100730008332D9F38A32C9F361E081E00E949802E2
:100740008D2F90E00E94AC022FEF80E792E02150C5
:1007500080409040E1F700C000008DE00E94350726
:10076000CC0F8C2F880F880FC80FDC0F8CEE8D0FED
:10077000893190F00E9403038FEB90E00E947C028D
:100780002FEF80E792E0215080409040E1F700C0D9
:1007900000000E940303ABCF8D2F0E94350726C0B7
:1007A0000E944901823081F00E9403038CE990E0AD
:1007B0000E947C022FEF80E792E021508040904021
:1007C000E1F700C0000080CF0E94030389E00E948F
:1007D00035078CEC90E00E947C022FEF80E792E0DE
:1007E000215080409040E1F700C00000DF91CF91A0
:1007F00008950E9403038FEC90E00E947C0260E069
:1008000081E00E94980284ED90E00E947C020E94A8
:100810004901813019F40E94620308950E94490140
:10082000823081F00E9403038CE990E00E947C02F8
:100830002FEF80E792E0215080409040E1F700C028
:100840000000D7CF0E9403038AE00E94350782EEA2
:1008500090E00E947C022FEF80E792E021508040E0
:100860009040E1F700C000000895EF92FF920F93CF
:100870001F93CF93DF937B01EA01122F0E940303A2
:10088000C7010E947C0286EE90E00E947C0262E03A
:1008900081E00E949802CE010E947C028CEE90E0E2
:1008A0000E947C020E944901813099F40E94030356
:1008B000812F0E9435078CEC90E00E947C022FEF84
:1008C00080E792E0215080409040E1F700C00000B6
:1008D00026C00E944901823099F40E940303802FB0
:1008E0000E94350782EE90E00E947C022FEF80E7A5
:1008F00092E0215080409040E1F700C000000FC01E
:100900000E94030387EF90E00E947C022FEF80E7B4
:1009100092E0215080409040E1F700C00000DF915C
:10092000CF911F910F91FF90EF900895CF92DF929A
:10093000EF92FF920F931F93CF93DF93C82F7B010A
:10094000142FD22FC82ED12C0E940303C7010E945E
:100950007C0286EE90E00E947C0262E081E00E94D0
:1009600098028DEF90E00E947C02C6010E94AC02CA
:10097000C33049F484E091E00E947C020E94490166
:10098000833029F51BC08CE091E00E947C020E941C
:100990004901C8131CC0C13089F40D2F212F44E137
:1009A00051E0B70181E00E94350404E023E048E112
:1009B00051E0B70181E00E943504C6CF0D2F212FF1
:1009C00044E151E0B7018C2F0E943504BDCF0E9455
:1009D0004901882381F00E9403038CE990E00E9482
:1009E0007C022FEF80E792E0215080409040E1F7B9
:1009F00000C00000A9CFDF91CF911F910F91FF9010
:100A0000EF90DF90CF9008950E9403038BE191E077
:100A10000E947C0260E081E00E9498028BE690E0F8
:100A20000E947C020E9449018130D1F40E9403039C
:100A30000E94F90322E041E06AE271E081E00E9455
:100A4000960426E045E061E371E082E00E949604AE
:100A500028E047E065E371E083E00E949604D4CF8C
:100A60000E944901823081F00E9403038CE990E0EA
:100A70000E947C022FEF80E792E02150804090405E
:100A8000E1F700C00000C0CF08950E9403038AE38D
:100A900091E00E947C0260E081E00E94980285E47F
:100AA00091E00E947C020E944901813019F40E9469
:100AB0000A03EBCF0E944901823019F40E94040519
:100AC000E4CF0E9403038CE990E00E947C022FEFA8
:100AD00080E792E0215080409040E1F700C00000A4
:100AE000D4CFCF93DF93CDB7DEB72A970FB6F89464
:100AF000DEBF0FBECDBF80E00E940E070E94E50161
:100B000040E060E081E00E94490041E067E083E06E
:100B10000E9449000E9455078FB780688FBF80E50B
:100B200091E00E947C0262E081E00E94980286E8E7
:100B300091E00E947C0200E010E0E12CD02E0E94A7
:100B40004901F82E21E0E21619F0E3940E94030314
:100B500089E08F15C8F06F2DC8010E9463088F2DA2
:100B600090E00E94AC029FEFE0E7F2E09150E0409D
:100B7000F040E1F700C000006D2D80E00E94980277
:100B80008AE20E94320220C06F2DC8010E946308D1
:100B900023E2F21204C083E20E94320205C08AE21C
:100BA000F81202C00E9432029FEFE0E7F2E091509B
:100BB000E040F040E1F700C000006D2D80E00E94B1
:100BC00098028AE20E9432022FEF80E792E02150E1
:100BD00080409040E1F700C000000F5F1F4F0530DC
:100BE000110509F405C1AACFC8010E945B08F601EE
:100BF00081936F010F5F1F4F05301105A9F7FFEFBC
:100C000020E782E0F15020408040E1F700C0000082
:100C10000E94030382E691E00E947C029FEFE0E7DE
:100C2000F2E09150E040F040E1F700C000000E9487
:100C3000030300E010E0C8010E945B08F701819304
:100C40007F010F5F1F4F05301105A9F788E691E07E
:100C50000E947C0262E081E00E94980286E891E0B6
:100C60000E947C02E12CF12C10E0BBC0F1E0FF16E9
:100C700019F0F3940E9403030A30E8F4E6E0F0E090
:100C8000EC0FFD1FE10FF11D0083802F90E00E940B
:100C9000AC022FEF80E792E0215080409040E1F7D6
:100CA00000C00000612F80E00E9498028AE20E944A
:100CB00032021F5F23C0E6E0F0E0EC0FFD1FE10F02
:100CC000F11D0083033221F483E20E94320205C049
:100CD0000A3219F48AE20E943202EFEFF0E722E0D2
:100CE000E150F0402040E1F700C00000612F80E0BB
:100CF0000E9498028AE20E9432021F5F8FEF90E703
:100D0000E2E081509040E040E1F700C00000153083
:100D100009F067C00E94030385E791E00E947C020E
:100D2000FFEF20E782E0F15020408040E1F700C073
:100D300000000E94030399818E81981314C09A8148
:100D40008F81981310C09B81888598130CC09C815B
:100D50008985981308C09D818A85981304C00E94D4
:100D600003030E94450581E891E00E947C029FEF09
:100D7000E0E7F2E09150E040F040E1F700C0000011
:100D80000E940303E39423E0E21213C08CE00E946C
:100D9000350780E991E00E947C028FEF95EAEEE052
:100DA00081509040E040E1F700C000000E94030342
:100DB000E12C8BE991E00E947C0262E081E00E94DC
:100DC000980286E891E00E947C02FFEF20E782E033
:100DD000F15020408040E1F700C000000E94030372
:100DE00010E00E944901082F153009F03FCF92CF43
:100DF0000E94030385E791E00E947C029FEFE0E7F9
:100E0000F2E09150E040F040E1F700C00000CE0178
:100E100001967C016C0100E010E0E6CECF93C82F74
:100E200040E066E081E00E94490041E065E081E049
:100E30000E94490041E067E081E00E94490041E0F2
:100E400064E081E00E94490041E064E081E00E94AA
:100E5000C900CC2321F083E58DB91EB804C080E51C
:100E60008DB981E08EB9CF910895CF93C82F40E01E
:100E700064E081E00E94C900CFB9779BFECF41E0DA
:100E800064E081E00E94C900CF91089513BE81E023
:100E900083BF12BE89B7816089BF089585B784601A
:100EA00085BF8BB780688BBF089541E060E083E029
:100EB0000E94490040E063E083E00E94490041E075
:100EC00063E083E00E94C9000E944E070E9446072B
:100ED00008958091AF01811110C041E060E083E08E
:100EE0000E94C90085E08A95F1F740E060E083E068
:100EF0000E94C90081E08093AF0108951F920F9274
:100F00000FB60F9211242F933F934F935F936F93DC
:100F10007F938F939F93AF93BF93EF93FF938091B2
:100F2000AF01813009F04CC08091AE0181110DC03C
:100F300012BE81E08093AE011092AA011092AB0123
:100F40001092AC011092AD013BC022B78091AA0172
:100F50009091AB01A091AC01B091AD01BA2FA92F36
:100F6000982F8827BC01CD01620F711D811D911D35
:100F700022ED31E040E050E00E942A082093B001C9
:100F80003093B1014093B2015093B3012039314005
:100F90004105510528F441E067E083E00E94C90063
:100FA0008FE097E20197F1F700C000001092AA01CC
:100FB0001092AB011092AC011092AD011092AE01F3
:100FC000FF91EF91BF91AF919F918F917F916F9121
:100FD0005F914F913F912F910F900FBE0F901F90F7
:100FE00018951F920F920FB60F9211242F938F9383
:100FF0009F93AF93BF938091AA019091AB01A09171
:10100000AC01B091AD010196A11DB11D8093AA0163
:101010009093AB01A093AC01B093AD018B3D924096
:10102000A105B10568F012BE1092AF011092AE0199
:101030001092AA011092AB011092AC011092AD0176
:10104000BF91AF919F918F912F910F900FBE0F90F5
:101050001F901895A1E21A2EAA1BBB1BFD010DC003
:10106000AA1FBB1FEE1FFF1FA217B307E407F50758
:1010700020F0A21BB30BE40BF50B661F771F881F34
:10108000991F1A9469F760957095809590959B01CA
:10109000AC01BD01CF010895A29FB001B39FC00173
:1010A000A39F700D811D1124911DB29F700D811D94
:1010B0001124911D0895E199FECF9FBB8EBBE09A4C
:1010C00099278DB30895262FE199FECF9FBB8EBB44
:1010D0002DBB0FB6F894E29AE19A0FBE01960895DF
:0410E000F894FFCFB2
:1010E4006F70656E20646F6F723F002020207965F9
:1010F40073312020206E6F32002074686520646F85
:101104006F722069732000206F70656E696E6720AE
:10111400002057656C636F6D6521200077726F6ED8
:1011240067206E6F007365742041432074656D7091
:10113400203F00656E7465722074656D703A0069B5
:101144006E76616C69642074656D70006F6E00204A
:10115400204143002020206F6E312020206F6666DE
:1011640032006F66660020726F6F6D003A206F6EFA
:1011740031206F6666320077726F6E670070726539
:1011840073732000202071756974300020206E650F
:10119400787430006C65640054560073686F77206F
:1011A40073657474696E67733F006C6976696E6702
:1011B40000626564006B69647300446F6F72202081
:1011C400202020310073657474696E6773203200C7
:1011D400656E74657220796F7572206669727374B6
:1011E40020007361766564002020656E746572204A
:1011F400796F757200706C656173652077616974CD
:101204000077726F6E672070617373776F7264001A
:1012140077616974203620736563002020656E74DD
:0A122400657220796F7572200000DA
:00000001FF
